{
  "_format": "hh-sol-artifact-1",
  "contractName": "Web3RSVP",
  "sourceName": "contracts/Web3RSVP.sol",
  "abi": [
    {
      "anonymous": false,
      "inputs": [
        {
          "indexed": false,
          "internalType": "bytes32",
          "name": "eventID",
          "type": "bytes32"
        },
        {
          "indexed": false,
          "internalType": "address",
          "name": "attendeeAddress",
          "type": "address"
        }
      ],
      "name": "ConfirmedAttendee",
      "type": "event"
    },
    {
      "anonymous": false,
      "inputs": [
        {
          "indexed": false,
          "internalType": "bytes32",
          "name": "eventID",
          "type": "bytes32"
        }
      ],
      "name": "DepositsPaidOut",
      "type": "event"
    },
    {
      "anonymous": false,
      "inputs": [
        {
          "indexed": false,
          "internalType": "bytes32",
          "name": "eventID",
          "type": "bytes32"
        },
        {
          "indexed": false,
          "internalType": "address",
          "name": "attendeeAddress",
          "type": "address"
        }
      ],
      "name": "NesRSVP",
      "type": "event"
    },
    {
      "anonymous": false,
      "inputs": [
        {
          "indexed": false,
          "internalType": "bytes32",
          "name": "eventID",
          "type": "bytes32"
        },
        {
          "indexed": false,
          "internalType": "address",
          "name": "creatorAddress",
          "type": "address"
        },
        {
          "indexed": false,
          "internalType": "uint256",
          "name": "eventTimestamp",
          "type": "uint256"
        },
        {
          "indexed": false,
          "internalType": "uint256",
          "name": "maxCapacity",
          "type": "uint256"
        },
        {
          "indexed": false,
          "internalType": "uint256",
          "name": "deposit",
          "type": "uint256"
        },
        {
          "indexed": false,
          "internalType": "string",
          "name": "eventDataCID",
          "type": "string"
        }
      ],
      "name": "NewEventCreated",
      "type": "event"
    },
    {
      "inputs": [
        {
          "internalType": "bytes32",
          "name": "eventId",
          "type": "bytes32"
        }
      ],
      "name": "confirmAllAttendees",
      "outputs": [],
      "stateMutability": "nonpayable",
      "type": "function"
    },
    {
      "inputs": [
        {
          "internalType": "bytes32",
          "name": "eventId",
          "type": "bytes32"
        },
        {
          "internalType": "address",
          "name": "attendee",
          "type": "address"
        }
      ],
      "name": "confirmAttendee",
      "outputs": [],
      "stateMutability": "nonpayable",
      "type": "function"
    },
    {
      "inputs": [
        {
          "internalType": "uint256",
          "name": "eventTimestamp",
          "type": "uint256"
        },
        {
          "internalType": "uint256",
          "name": "deposit",
          "type": "uint256"
        },
        {
          "internalType": "uint256",
          "name": "maxCapacity",
          "type": "uint256"
        },
        {
          "internalType": "string",
          "name": "eventDataCID",
          "type": "string"
        }
      ],
      "name": "createNewEvent",
      "outputs": [],
      "stateMutability": "nonpayable",
      "type": "function"
    },
    {
      "inputs": [
        {
          "internalType": "bytes32",
          "name": "eventId",
          "type": "bytes32"
        }
      ],
      "name": "createNewRSVP",
      "outputs": [],
      "stateMutability": "payable",
      "type": "function"
    },
    {
      "inputs": [
        {
          "internalType": "bytes32",
          "name": "",
          "type": "bytes32"
        }
      ],
      "name": "idToEvent",
      "outputs": [
        {
          "internalType": "bytes32",
          "name": "eventId",
          "type": "bytes32"
        },
        {
          "internalType": "string",
          "name": "eventDataCID",
          "type": "string"
        },
        {
          "internalType": "address",
          "name": "eventOwner",
          "type": "address"
        },
        {
          "internalType": "uint256",
          "name": "eventTimestamp",
          "type": "uint256"
        },
        {
          "internalType": "uint256",
          "name": "deposit",
          "type": "uint256"
        },
        {
          "internalType": "uint256",
          "name": "maxCapacity",
          "type": "uint256"
        },
        {
          "internalType": "bool",
          "name": "paidOut",
          "type": "bool"
        }
      ],
      "stateMutability": "view",
      "type": "function"
    },
    {
      "inputs": [
        {
          "internalType": "bytes32",
          "name": "eventId",
          "type": "bytes32"
        }
      ],
      "name": "withdrawUnclaimedDeposits",
      "outputs": [],
      "stateMutability": "nonpayable",
      "type": "function"
    }
  ],
  "bytecode": "0x608060405234801561001057600080fd5b506121bd806100206000396000f3fe6080604052600436106100545760003560e01c806292098c1461005957806317f0165a146100825780636dcdf2cd1461009e57806379747571146100c7578063909ef021146100f0578063acdbe01214610133575b600080fd5b34801561006557600080fd5b50610080600480360381019061007b9190611570565b61015c565b005b61009c6004803603810190610097919061162e565b610378565b005b3480156100aa57600080fd5b506100c560048036038101906100c091906116b9565b6105e5565b005b3480156100d357600080fd5b506100ee60048036038101906100e9919061162e565b610abe565b005b3480156100fc57600080fd5b506101176004803603810190610112919061162e565b610f76565b60405161012a97969594939291906117da565b60405180910390f35b34801561013f57600080fd5b5061015a6004803603810190610155919061162e565b61106d565b005b600033308787876040516020016101779594939291906118b9565b60405160208183030381529060405280519060200120905060608060405180610120016040528084815260200186868080601f016020809104026020016040519081016040528093929190818152602001838380828437600081840152601f19601f8201169050808301925050505050505081526020013373ffffffffffffffffffffffffffffffffffffffff1681526020018981526020018881526020018781526020018381526020018281526020016000151581525060008085815260200190815260200160002060008201518160000155602082015181600101908051906020019061026792919061139e565b5060408201518160020160006101000a81548173ffffffffffffffffffffffffffffffffffffffff021916908373ffffffffffffffffffffffffffffffffffffffff160217905550606082015181600301556080820151816004015560a0820151816005015560c08201518160060190805190602001906102e9929190611424565b5060e0820151816007019080519060200190610306929190611424565b506101008201518160080160006101000a81548160ff0219169083151502179055509050507f2553138c3f9c9008f266dbdbe9fc64f5b71e098d06ef714a190a65a8b9fc6bf383338a898b8a8a6040516103669796959493929190611954565b60405180910390a15050505050505050565b60008060008381526020019081526020016000209050806004015434146103d4576040517f08c379a00000000000000000000000000000000000000000000000000000000081526004016103cb90611a0a565b60405180910390fd5b806003015442111561041b576040517f08c379a000000000000000000000000000000000000000000000000000000000815260040161041290611a76565b60405180910390fd5b8060050154816006018054905010610468576040517f08c379a000000000000000000000000000000000000000000000000000000000815260040161045f90611b08565b60405180910390fd5b60005b81600601805490508160ff161015610542573373ffffffffffffffffffffffffffffffffffffffff16826006018260ff16815481106104ad576104ac611b28565b5b9060005260206000200160009054906101000a900473ffffffffffffffffffffffffffffffffffffffff1673ffffffffffffffffffffffffffffffffffffffff16141561052f576040517f08c379a000000000000000000000000000000000000000000000000000000000815260040161052690611ba3565b60405180910390fd5b808061053a90611bff565b91505061046b565b5080600601339080600181540180825580915050600190039060005260206000200160009091909190916101000a81548173ffffffffffffffffffffffffffffffffffffffff021916908373ffffffffffffffffffffffffffffffffffffffff1602179055507f6a9ee4f8a83799c994e911668f7fe9511e4e19c39fbf41315b86667f0d06f35882336040516105d9929190611c29565b60405180910390a15050565b600080600084815260200190815260200160002090508060020160009054906101000a900473ffffffffffffffffffffffffffffffffffffffff1673ffffffffffffffffffffffffffffffffffffffff163373ffffffffffffffffffffffffffffffffffffffff161461068d576040517f08c379a000000000000000000000000000000000000000000000000000000000815260040161068490611c9e565b60405180910390fd5b600080600090505b82600601805490508160ff161015610778578373ffffffffffffffffffffffffffffffffffffffff16836006018260ff16815481106106d7576106d6611b28565b5b9060005260206000200160009054906101000a900473ffffffffffffffffffffffffffffffffffffffff1673ffffffffffffffffffffffffffffffffffffffff16141561076557826006018160ff168154811061073757610736611b28565b5b9060005260206000200160009054906101000a900473ffffffffffffffffffffffffffffffffffffffff1691505b808061077090611bff565b915050610695565b508273ffffffffffffffffffffffffffffffffffffffff168173ffffffffffffffffffffffffffffffffffffffff16146107e7576040517f08c379a00000000000000000000000000000000000000000000000000000000081526004016107de90611d0a565b60405180910390fd5b60005b82600701805490508160ff1610156108c1578373ffffffffffffffffffffffffffffffffffffffff16836007018260ff168154811061082c5761082b611b28565b5b9060005260206000200160009054906101000a900473ffffffffffffffffffffffffffffffffffffffff1673ffffffffffffffffffffffffffffffffffffffff1614156108ae576040517f08c379a00000000000000000000000000000000000000000000000000000000081526004016108a590611d76565b60405180910390fd5b80806108b990611bff565b9150506107ea565b50600015158260080160009054906101000a900460ff1615151461091a576040517f08c379a000000000000000000000000000000000000000000000000000000000815260040161091190611de2565b60405180910390fd5b81600701839080600181540180825580915050600190039060005260206000200160009091909190916101000a81548173ffffffffffffffffffffffffffffffffffffffff021916908373ffffffffffffffffffffffffffffffffffffffff16021790555060008373ffffffffffffffffffffffffffffffffffffffff1683600401546040516109a990611e33565b60006040518083038185875af1925050503d80600081146109e6576040519150601f19603f3d011682016040523d82523d6000602084013e6109eb565b606091505b5050905080610a3e5782600701805480610a0857610a07611e48565b5b6001900381819060005260206000200160006101000a81549073ffffffffffffffffffffffffffffffffffffffff021916905590555b80610a7e576040517f08c379a0000000000000000000000000000000000000000000000000000000008152600401610a7590611ec3565b60405180910390fd5b7ff8d1583a733d83bdd3ef5464129d0a95a36d62b382d31c6d0467a61f4264381b8585604051610aaf929190611c29565b60405180910390a15050505050565b60008060008381526020019081526020016000206040518061012001604052908160008201548152602001600182018054610af890611f12565b80601f0160208091040260200160405190810160405280929190818152602001828054610b2490611f12565b8015610b715780601f10610b4657610100808354040283529160200191610b71565b820191906000526020600020905b815481529060010190602001808311610b5457829003601f168201915b505050505081526020016002820160009054906101000a900473ffffffffffffffffffffffffffffffffffffffff1673ffffffffffffffffffffffffffffffffffffffff1673ffffffffffffffffffffffffffffffffffffffff16815260200160038201548152602001600482015481526020016005820154815260200160068201805480602002602001604051908101604052809291908181526020018280548015610c7357602002820191906000526020600020905b8160009054906101000a900473ffffffffffffffffffffffffffffffffffffffff1673ffffffffffffffffffffffffffffffffffffffff1681526020019060010190808311610c29575b5050505050815260200160078201805480602002602001604051908101604052809291908181526020018280548015610d0157602002820191906000526020600020905b8160009054906101000a900473ffffffffffffffffffffffffffffffffffffffff1673ffffffffffffffffffffffffffffffffffffffff1681526020019060010190808311610cb7575b505050505081526020016008820160009054906101000a900460ff161515151581525050905080610100015115610d6d576040517f08c379a0000000000000000000000000000000000000000000000000000000008152600401610d6490611f90565b60405180910390fd5b62093a808160600151610d809190611fb0565b421015610dc2576040517f08c379a0000000000000000000000000000000000000000000000000000000008152600401610db990612052565b60405180910390fd5b806040015173ffffffffffffffffffffffffffffffffffffffff163373ffffffffffffffffffffffffffffffffffffffff1614610e34576040517f08c379a0000000000000000000000000000000000000000000000000000000008152600401610e2b906120be565b60405180910390fd5b60008160e00151518260c0015151610e4c91906120de565b90506000826080015182610e609190612112565b905060018361010001901515908115158152505060003373ffffffffffffffffffffffffffffffffffffffff1682604051610e9a90611e33565b60006040518083038185875af1925050503d8060008114610ed7576040519150601f19603f3d011682016040523d82523d6000602084013e610edc565b606091505b5050905080610ef8576000846101000190151590811515815250505b80610f38576040517f08c379a0000000000000000000000000000000000000000000000000000000008152600401610f2f90611ec3565b60405180910390fd5b7f393073ea1365f611c3d2f240c992960d2b99dc81715555d3fc40fc55ba80af9c85604051610f67919061216c565b60405180910390a15050505050565b6000602052806000526040600020600091509050806000015490806001018054610f9f90611f12565b80601f0160208091040260200160405190810160405280929190818152602001828054610fcb90611f12565b80156110185780601f10610fed57610100808354040283529160200191611018565b820191906000526020600020905b815481529060010190602001808311610ffb57829003601f168201915b5050505050908060020160009054906101000a900473ffffffffffffffffffffffffffffffffffffffff16908060030154908060040154908060050154908060080160009054906101000a900460ff16905087565b600080600083815260200190815260200160002060405180610120016040529081600082015481526020016001820180546110a790611f12565b80601f01602080910402602001604051908101604052809291908181526020018280546110d390611f12565b80156111205780601f106110f557610100808354040283529160200191611120565b820191906000526020600020905b81548152906001019060200180831161110357829003601f168201915b505050505081526020016002820160009054906101000a900473ffffffffffffffffffffffffffffffffffffffff1673ffffffffffffffffffffffffffffffffffffffff1673ffffffffffffffffffffffffffffffffffffffff1681526020016003820154815260200160048201548152602001600582015481526020016006820180548060200260200160405190810160405280929190818152602001828054801561122257602002820191906000526020600020905b8160009054906101000a900473ffffffffffffffffffffffffffffffffffffffff1673ffffffffffffffffffffffffffffffffffffffff16815260200190600101908083116111d8575b50505050508152602001600782018054806020026020016040519081016040528092919081815260200182805480156112b057602002820191906000526020600020905b8160009054906101000a900473ffffffffffffffffffffffffffffffffffffffff1673ffffffffffffffffffffffffffffffffffffffff1681526020019060010190808311611266575b505050505081526020016008820160009054906101000a900460ff1615151515815250509050806040015173ffffffffffffffffffffffffffffffffffffffff163373ffffffffffffffffffffffffffffffffffffffff1614611348576040517f08c379a000000000000000000000000000000000000000000000000000000000815260040161133f90611c9e565b60405180910390fd5b60005b8160c00151518160ff16101561139957611386838360c001518360ff168151811061137957611378611b28565b5b60200260200101516105e5565b808061139190611bff565b91505061134b565b505050565b8280546113aa90611f12565b90600052602060002090601f0160209004810192826113cc5760008555611413565b82601f106113e557805160ff1916838001178555611413565b82800160010185558215611413579182015b828111156114125782518255916020019190600101906113f7565b5b50905061142091906114ae565b5090565b82805482825590600052602060002090810192821561149d579160200282015b8281111561149c5782518260006101000a81548173ffffffffffffffffffffffffffffffffffffffff021916908373ffffffffffffffffffffffffffffffffffffffff16021790555091602001919060010190611444565b5b5090506114aa91906114ae565b5090565b5b808211156114c75760008160009055506001016114af565b5090565b600080fd5b600080fd5b6000819050919050565b6114e8816114d5565b81146114f357600080fd5b50565b600081359050611505816114df565b92915050565b600080fd5b600080fd5b600080fd5b60008083601f8401126115305761152f61150b565b5b8235905067ffffffffffffffff81111561154d5761154c611510565b5b60208301915083600182028301111561156957611568611515565b5b9250929050565b60008060008060006080868803121561158c5761158b6114cb565b5b600061159a888289016114f6565b95505060206115ab888289016114f6565b94505060406115bc888289016114f6565b935050606086013567ffffffffffffffff8111156115dd576115dc6114d0565b5b6115e98882890161151a565b92509250509295509295909350565b6000819050919050565b61160b816115f8565b811461161657600080fd5b50565b60008135905061162881611602565b92915050565b600060208284031215611644576116436114cb565b5b600061165284828501611619565b91505092915050565b600073ffffffffffffffffffffffffffffffffffffffff82169050919050565b60006116868261165b565b9050919050565b6116968161167b565b81146116a157600080fd5b50565b6000813590506116b38161168d565b92915050565b600080604083850312156116d0576116cf6114cb565b5b60006116de85828601611619565b92505060206116ef858286016116a4565b9150509250929050565b611702816115f8565b82525050565b600081519050919050565b600082825260208201905092915050565b60005b83811015611742578082015181840152602081019050611727565b83811115611751576000848401525b50505050565b6000601f19601f8301169050919050565b600061177382611708565b61177d8185611713565b935061178d818560208601611724565b61179681611757565b840191505092915050565b6117aa8161167b565b82525050565b6117b9816114d5565b82525050565b60008115159050919050565b6117d4816117bf565b82525050565b600060e0820190506117ef600083018a6116f9565b81810360208301526118018189611768565b905061181060408301886117a1565b61181d60608301876117b0565b61182a60808301866117b0565b61183760a08301856117b0565b61184460c08301846117cb565b98975050505050505050565b60008160601b9050919050565b600061186882611850565b9050919050565b600061187a8261185d565b9050919050565b61189261188d8261167b565b61186f565b82525050565b6000819050919050565b6118b36118ae826114d5565b611898565b82525050565b60006118c58288611881565b6014820191506118d58287611881565b6014820191506118e582866118a2565b6020820191506118f582856118a2565b60208201915061190582846118a2565b6020820191508190509695505050505050565b82818337600083830152505050565b60006119338385611713565b9350611940838584611918565b61194983611757565b840190509392505050565b600060c082019050611969600083018a6116f9565b61197660208301896117a1565b61198360408301886117b0565b61199060608301876117b0565b61199d60808301866117b0565b81810360a08301526119b0818486611927565b905098975050505050505050565b7f4e4f5420454e4f55474800000000000000000000000000000000000000000000600082015250565b60006119f4600a83611713565b91506119ff826119be565b602082019050919050565b60006020820190508181036000830152611a23816119e7565b9050919050565b7f414c52454144592048415050454e454400000000000000000000000000000000600082015250565b6000611a60601083611713565b9150611a6b82611a2a565b602082019050919050565b60006020820190508181036000830152611a8f81611a53565b9050919050565b7f54686973206576656e742068617320726561636865642074686520636170616360008201527f6974790000000000000000000000000000000000000000000000000000000000602082015250565b6000611af2602383611713565b9150611afd82611a96565b604082019050919050565b60006020820190508181036000830152611b2181611ae5565b9050919050565b7f4e487b7100000000000000000000000000000000000000000000000000000000600052603260045260246000fd5b7f414c524541445920434f4e4649524d4544000000000000000000000000000000600082015250565b6000611b8d601183611713565b9150611b9882611b57565b602082019050919050565b60006020820190508181036000830152611bbc81611b80565b9050919050565b7f4e487b7100000000000000000000000000000000000000000000000000000000600052601160045260246000fd5b600060ff82169050919050565b6000611c0a82611bf2565b915060ff821415611c1e57611c1d611bc3565b5b600182019050919050565b6000604082019050611c3e60008301856116f9565b611c4b60208301846117a1565b9392505050565b7f4e4f5420415554484f52495a4544000000000000000000000000000000000000600082015250565b6000611c88600e83611713565b9150611c9382611c52565b602082019050919050565b60006020820190508181036000830152611cb781611c7b565b9050919050565b7f4e4f205253565020544f20434f4e4649524d0000000000000000000000000000600082015250565b6000611cf4601283611713565b9150611cff82611cbe565b602082019050919050565b60006020820190508181036000830152611d2381611ce7565b9050919050565b7f414c524541445920434c41494d45440000000000000000000000000000000000600082015250565b6000611d60600f83611713565b9150611d6b82611d2a565b602082019050919050565b60006020820190508181036000830152611d8f81611d53565b9050919050565b7f414c52454144592050414944204f555400000000000000000000000000000000600082015250565b6000611dcc601083611713565b9150611dd782611d96565b602082019050919050565b60006020820190508181036000830152611dfb81611dbf565b9050919050565b600081905092915050565b50565b6000611e1d600083611e02565b9150611e2882611e0d565b600082019050919050565b6000611e3e82611e10565b9150819050919050565b7f4e487b7100000000000000000000000000000000000000000000000000000000600052603160045260246000fd5b7f4661696c656420746f2073656e64204574686572000000000000000000000000600082015250565b6000611ead601483611713565b9150611eb882611e77565b602082019050919050565b60006020820190508181036000830152611edc81611ea0565b9050919050565b7f4e487b7100000000000000000000000000000000000000000000000000000000600052602260045260246000fd5b60006002820490506001821680611f2a57607f821691505b60208210811415611f3e57611f3d611ee3565b5b50919050565b7f414c524541445920504149440000000000000000000000000000000000000000600082015250565b6000611f7a600c83611713565b9150611f8582611f44565b602082019050919050565b60006020820190508181036000830152611fa981611f6d565b9050919050565b6000611fbb826114d5565b9150611fc6836114d5565b9250827fffffffffffffffffffffffffffffffffffffffffffffffffffffffffffffffff03821115611ffb57611ffa611bc3565b5b828201905092915050565b7f544f4f204541524c590000000000000000000000000000000000000000000000600082015250565b600061203c600983611713565b915061204782612006565b602082019050919050565b6000602082019050818103600083015261206b8161202f565b9050919050565b7f4d555354204245204556454e54204f574e455200000000000000000000000000600082015250565b60006120a8601383611713565b91506120b382612072565b602082019050919050565b600060208201905081810360008301526120d78161209b565b9050919050565b60006120e9826114d5565b91506120f4836114d5565b92508282101561210757612106611bc3565b5b828203905092915050565b600061211d826114d5565b9150612128836114d5565b9250817fffffffffffffffffffffffffffffffffffffffffffffffffffffffffffffffff048311821515161561216157612160611bc3565b5b828202905092915050565b600060208201905061218160008301846116f9565b9291505056fea26469706673582212209952530979a59b9cd8ef090b80a9cb072c1f55cce489ee3ef40e540d93ab809f64736f6c63430008090033",
  "linkReferences": {},
  "deployedLinkReferences": {}
}